:1002BE0047656E7368696E496D706163742069730A
:1002CE00612047524541542047414D4521000000D1
:1002DE0000476F6F64206D6F726E696E672C536985
:1002EE0072486176652061206E696365206461796C
:1002FE00210048616D6F6F643F48616D6F6F6421BF
:10030E00202048616D6F6F644861626962692100E7
:10031E000000004966596F7520617265526561640F
:10032E00696E6774686973000000000000000000C9
:10033E0000000000596F752061726520696E2020E3
:10034E002020202054524F55424C4521212121007E
:05035E0000000000009A
:0A042B00EF1FAC0670011E4C601CB0
:100435009000C17402F0A374EFF09000C2E014F0D4
:0A04450070F89000C1E014F070F0B0
:03044F0080DA222E
:1003F700E4900000F0A3F078027C007D017BFF7A97
:100407000279BEFE7FA51200D31204797B9C7AFF86
:100417007D0A7F021201C37BE47AFF7D0F7F011201
:0404270001C380FE8F
:0204E8002D00E5
:100452007F381204AE7F017E001204677F381204D7
:05046200AE7F017E00E9
:100467007C007D14120126EF1FAC0670011E4C7034
:01047700F68E
:010478002261
:1004AE00C2A6C2A58F80D2A7C2A77F017E0002047A
:0104BE0067D6
:100479001204521204527F0C1204AE7F061204AE0B
:0C0489007F011204AE7F0A7E00020467AF
:1004BF00D2A6C2A58F80D2A7C2A77F017E00020459
:0104CF0067C5
:0C04D0007F011204AE7F057E000204676D
:10049500EF64017006ED2480FA8004ED24C0FAAF04
:0904A500021204AEAF030204BF11
:100363009000B9EBF0A3EAF0A3E9F09000B8EFF046
:10037300E49000BDF0A3F0C3740F9DA3F0A3740138
:10038300F06F7005ED24808003ED24C09000BCF075
:100393009000BCE0FF1204AE9000B9E0FBA3E0FACA
:1003A300A3E0F99000BDE0FEA3E0F5828E83120086
:1003B300F9FF603F1204BF9000BEE004F0700690A6
:1003C30000BDE004F09000B8E0640170CB9000BF82
:1003D300E0FFD39000BEE09F7480F89000BDE0641E
:1003E300809840B49000C0E060AE7FC01204AEE4D9
:0303F300F080A5F2
:0103F60022E4
:0E01C3009000A7EFF0A3EDF0A3EAF0A3EBF09D
:1001D100E4A3F0C3EA64809480503F9000A9E0FE5C
:1001E100A3E0FFC3E49FFFE49E9000A9F0A3EFF01A
:1001F1009000A7E0FFA3E0FD7BFF7A0479E81203FA
:10020100639000A8E004F0E0D3940F7480948040E0
:10021100099000A7E004F0E4A3F09000A9E07002C7
:10022100A3E060389000A9E0FAA3E0FB7C007D0A1E
:10023100FFAE02120138A3E024ACF582E43400F5EC
:1002410083EDF07C007D0AAF03AE0212013890000D
:10025100A9EEF0A3EFF0A3E004F080BE9000ABE0C4
:10026100FF24ACF582E43400F583E4F074B22FF599
:1002710082E43400F583E4F0FEEEC39F502E90003B
:10028100ABE014F024ACF582E43400F583E0FD74B6
:10029100B22EF582E43400F583EDF074B22EF582CE
:1002A100E43400F583E02430F00E80CD9000A7E027
:0D02B100FFA3E0FD7B017A0079B202036338
:030000000204DC1B
:0C04DC00787FE4F6D8FD7581070203F775
:10000300E709F608DFFA8046E709F208DFFA803EDF
:1000130088828C83E709F0A3DFFA8032E309F608CC
:10002300DFFA8078E309F208DFFA807088828C8334
:10003300E309F0A3DFFA806489828A83E0A3F608E8
:10004300DFFA805889828A83E0A3F208DFFA804CC2
:1000530080D280FA80C680D4806980F28033801099
:1000630080A680EA809A80A880DA80E280CA803302
:1000730089828A83ECFAE493A3C8C582C8CCC5837A
:10008300CCF0A3C8C582C8CCC583CCDFE9DEE7804A
:100093000D89828A83E493A3F608DFF9ECFAA9F0C9
:1000A300EDFB2289828A83ECFAE0A3C8C582C8CC1F
:1000B300C583CCF0A3C8C582C8CCC583CCDFEADE38
:1000C300E880DB89828A83E493A3F208DFF980CC9A
:1000D30088F0EF60010E4E60C388F0ED2402B40493
:1000E3000050B9F582EB2402B4040050AF2323453A
:0600F3008223900053730C
:1000F900BB010CE58229F582E5833AF583E02250BC
:1001090006E92582F8E622BBFE06E92582F8E22205
:0D011900E58229F582E5833AF583E493221F
:10012600EF8DF0A4A8F0CF8CF0A428CE8DF0A42EED
:02013600FE22A7
:10013800C2D5EC30E709B2D5E4C39DFDE49CFCEEE2
:1001480030E715B2D5E4C39FFFE49EFE12016EC3EB
:10015800E49DFDE49CFC800312016E30D507C3E4E6
:060168009FFFE49EFE2251
:10016E00BC000BBE0029EF8DF084FFADF022E4CC75
:10017E00F875F008EF2FFFEE33FEEC33FCEE9DEC3E
:10018E00984005FCEE9DFE0FD5F0E9E4CEFD22ED84
:10019E00F8F5F0EE8420D21CFEADF075F008EF2FCE
:1001AE00FFED33FD4007985006D5F0F222C398FDBF
:0501BE000FD5F0EA225C
:00000001FF
